
object.riscv:	file format elf32-littleriscv

Disassembly of section .text:

80000000 <_start>:
80000000: 97 41 00 00  	auipc	gp, 4
80000004: 93 81 81 80  	addi	gp, gp, -2040
80000008: 93 0e 00 02  	li	t4, 32
8000000c: d7 fe 0e 0d  	vsetvli	t4, t4, e32, m1, ta, ma
80000010: b7 2e 00 00  	lui	t4, 2
80000014: f3 ae 0e 30  	csrrs	t4, mstatus, t4
80000018: 93 0e 00 00  	li	t4, 0
8000001c: 73 23 50 80  	csrr	t1, 2053
80000020: f3 23 60 80  	csrr	t2, 2054
80000024: 13 0e 00 40  	li	t3, 1024
80000028: 33 03 c3 03  	mul	t1, t1, t3
8000002c: 33 01 73 00  	add	sp, t1, t2
80000030: 13 02 00 00  	li	tp, 0

80000034 <.Lpcrel_hi1>:
80000034: 17 35 00 00  	auipc	a0, 3
80000038: 13 05 45 fd  	addi	a0, a0, -44

8000003c <.Lpcrel_hi2>:
8000003c: 17 36 00 00  	auipc	a2, 3
80000040: 13 06 c6 fc  	addi	a2, a2, -52
80000044: 63 08 c5 00  	beq	a0, a2, 0x80000054 <.Ltmp0>

80000048 <.Ltmp1>:
80000048: 23 20 05 00  	sw	zero, 0(a0)
8000004c: 13 05 45 00  	addi	a0, a0, 4
80000050: e3 6c c5 fe  	bltu	a0, a2, 0x80000048 <.Ltmp1>

80000054 <.Ltmp0>:
80000054: f3 22 30 80  	csrr	t0, 2051
80000058: 03 a3 02 00  	lw	t1, 0(t0)
8000005c: 03 a5 42 00  	lw	a0, 4(t0)
80000060: 83 a3 02 03  	lw	t2, 48(t0)
80000064: 03 ae 42 03  	lw	t3, 52(t0)

80000068 <.Lpcrel_hi3>:
80000068: 97 3e 00 00  	auipc	t4, 3
8000006c: 93 8e 8e f9  	addi	t4, t4, -104

80000070 <.Lpcrel_hi4>:
80000070: 17 3f 00 00  	auipc	t5, 3
80000074: 13 0f 4f f9  	addi	t5, t5, -108
80000078: 23 a0 7e 00  	sw	t2, 0(t4)
8000007c: 23 20 cf 01  	sw	t3, 0(t5)

80000080 <.Lpcrel_hi5>:
80000080: 97 0f 00 00  	auipc	t6, 0
80000084: 93 8f 8f 01  	addi	t6, t6, 24
80000088: 73 90 5f 30  	csrw	mtvec, t6
8000008c: e7 00 03 00  	jalr	t1
80000090: 0b 40 00 00  	endprg	x0, x0, x0
80000094: 6f 00 40 00  	j	0x80000098 <spike_end>

80000098 <spike_end>:
80000098: 13 03 10 00  	li	t1, 1

8000009c <.Lpcrel_hi6>:
8000009c: 97 12 00 00  	auipc	t0, 1
800000a0: 93 82 42 f6  	addi	t0, t0, -156
800000a4: 23 a0 62 00  	sw	t1, 0(t0)

800000a8 <matadd>:
800000a8: 13 01 01 01  	addi	sp, sp, 16
800000ac: 13 02 82 00  	addi	tp, tp, 8
800000b0: 0b 20 10 00  	regext	zero, zero, 1
800000b4: 57 40 02 5e  	vmv.v.x	v0, tp
800000b8: 23 28 11 fe  	sw	ra, -16(sp)
800000bc: 83 22 85 00  	lw	t0, 8(a0)
800000c0: 23 2a 51 fe  	sw	t0, -12(sp)
800000c4: 83 22 45 00  	lw	t0, 4(a0)
800000c8: 23 2c 51 fe  	sw	t0, -8(sp)
800000cc: 83 22 05 00  	lw	t0, 0(a0)
800000d0: 23 2e 51 fe  	sw	t0, -4(sp)
800000d4: 57 40 00 5e  	vmv.v.x	v0, zero
800000d8: ef 00 40 0e  	jal	0x800001bc <_Z13get_global_idj>
800000dc: 0b 20 10 00  	regext	zero, zero, 1
800000e0: d7 40 00 02  	vadd.vx	v1, v0, zero
800000e4: 93 02 10 00  	li	t0, 1
800000e8: 57 c0 02 5e  	vmv.v.x	v0, t0
800000ec: ef 00 00 0d  	jal	0x800001bc <_Z13get_global_idj>
800000f0: 0b 20 10 00  	regext	zero, zero, 1
800000f4: 57 41 00 02  	vadd.vx	v2, v0, zero
800000f8: 57 40 00 5e  	vmv.v.x	v0, zero
800000fc: ef 00 c0 04  	jal	0x80000148 <_Z15get_global_sizej>
80000100: 0b 20 80 04  	regext	zero, zero, 72
80000104: 57 20 11 a6  	vmadd.vv	v0, v2, v1
80000108: 57 30 01 96  	vsll.vi	v0, v0, 2
8000010c: 03 23 c1 ff  	lw	t1, -4(sp)
80000110: d7 40 03 02  	vadd.vx	v1, v0, t1
80000114: fb a0 00 00  	vlw12.v	v1, 0(v1)
80000118: 83 22 81 ff  	lw	t0, -8(sp)
8000011c: 57 c1 02 02  	vadd.vx	v2, v0, t0
80000120: 7b 21 01 00  	vlw12.v	v2, 0(v2)
80000124: d7 10 11 02  	vfadd.vv	v1, v1, v2
80000128: 83 22 41 ff  	lw	t0, -12(sp)
8000012c: 57 c0 02 02  	vadd.vx	v0, v0, t0
80000130: 7b 60 10 00  	vsw12.v	v1, 0(v0)
80000134: 83 20 01 ff  	lw	ra, -16(sp)
80000138: 0b c0 00 04  	barrier	x0, x0, 1
8000013c: 13 01 01 ff  	addi	sp, sp, -16
80000140: 13 02 82 ff  	addi	tp, tp, -8
80000144: 67 80 00 00  	ret

80000148 <_Z15get_global_sizej>:
80000148: 13 01 41 00  	addi	sp, sp, 4
8000014c: 23 2e 11 fe  	sw	ra, -4(sp)
80000150: d7 40 00 02  	vadd.vx	v1, v0, zero
80000154: 93 02 20 00  	li	t0, 2
80000158: 57 c0 02 5e  	vmv.v.x	v0, t0

8000015c <.Lpcrel_hi0>:
8000015c: 17 03 00 00  	auipc	t1, 0
80000160: 5b 30 c3 04  	setrpc	zero, t1, 76
80000164: 5b 0c 10 02  	vbeq	v1, v0, 0x8000019c <.LBB0_4>
80000168: 93 02 10 00  	li	t0, 1
8000016c: 57 c0 02 5e  	vmv.v.x	v0, t0

80000170 <.Lpcrel_hi1>:
80000170: 17 03 00 00  	auipc	t1, 0
80000174: 5b 30 83 03  	setrpc	zero, t1, 56
80000178: 5b 06 10 02  	vbeq	v1, v0, 0x800001a4 <.LBB0_5>
8000017c: 57 41 00 5e  	vmv.v.x	v2, zero
80000180: 93 02 10 00  	li	t0, 1
80000184: 57 c0 02 5e  	vmv.v.x	v0, t0

80000188 <.Lpcrel_hi2>:
80000188: 17 03 00 00  	auipc	t1, 0
8000018c: 5b 30 03 02  	setrpc	zero, t1, 32
80000190: 5b 1c 11 00  	vbne	v1, v2, 0x800001a8 <.LBB0_6>
80000194: ef 00 c0 28  	jal	0x80000420 <__builtin_riscv_global_size_x>
80000198: 6f 00 00 01  	j	0x800001a8 <.LBB0_6>

8000019c <.LBB0_4>:
8000019c: ef 00 40 2a  	jal	0x80000440 <__builtin_riscv_global_size_z>
800001a0: 6f 00 80 00  	j	0x800001a8 <.LBB0_6>

800001a4 <.LBB0_5>:
800001a4: ef 00 c0 28  	jal	0x80000430 <__builtin_riscv_global_size_y>

800001a8 <.LBB0_6>:
800001a8: 5b 20 00 00  	join	zero, zero, 0
800001ac: 83 20 c1 ff  	lw	ra, -4(sp)
800001b0: 0b c0 00 04  	barrier	x0, x0, 1
800001b4: 13 01 c1 ff  	addi	sp, sp, -4
800001b8: 67 80 00 00  	ret

800001bc <_Z13get_global_idj>:
800001bc: 13 01 41 00  	addi	sp, sp, 4
800001c0: 23 2e 11 fe  	sw	ra, -4(sp)
800001c4: 93 02 20 00  	li	t0, 2
800001c8: d7 c0 02 5e  	vmv.v.x	v1, t0

800001cc <.Lpcrel_hi0>:
800001cc: 17 03 00 00  	auipc	t1, 0
800001d0: 5b 30 c3 04  	setrpc	zero, t1, 76
800001d4: 5b 88 00 02  	vbeq	v0, v1, 0x80000204 <.LBB0_4>
800001d8: 93 02 10 00  	li	t0, 1
800001dc: d7 c0 02 5e  	vmv.v.x	v1, t0

800001e0 <.Lpcrel_hi1>:
800001e0: 17 03 00 00  	auipc	t1, 0
800001e4: 5b 30 83 03  	setrpc	zero, t1, 56
800001e8: 5b 82 00 02  	vbeq	v0, v1, 0x8000020c <.LBB0_5>
800001ec: d7 40 00 5e  	vmv.v.x	v1, zero

800001f0 <.Lpcrel_hi2>:
800001f0: 17 03 00 00  	auipc	t1, 0
800001f4: 5b 30 83 02  	setrpc	zero, t1, 40
800001f8: 5b 9e 00 00  	vbne	v0, v1, 0x80000214 <.LBB0_6>
800001fc: ef 00 80 16  	jal	0x80000364 <__builtin_riscv_global_id_x>
80000200: 6f 00 80 01  	j	0x80000218 <.LBB0_7>

80000204 <.LBB0_4>:
80000204: ef 00 c0 1b  	jal	0x800003c0 <__builtin_riscv_global_id_z>
80000208: 6f 00 00 01  	j	0x80000218 <.LBB0_7>

8000020c <.LBB0_5>:
8000020c: ef 00 80 18  	jal	0x80000394 <__builtin_riscv_global_id_y>
80000210: 6f 00 80 00  	j	0x80000218 <.LBB0_7>

80000214 <.LBB0_6>:
80000214: 57 40 00 5e  	vmv.v.x	v0, zero

80000218 <.LBB0_7>:
80000218: 5b 20 00 00  	join	zero, zero, 0
8000021c: 83 20 c1 ff  	lw	ra, -4(sp)
80000220: 0b c0 00 04  	barrier	x0, x0, 1
80000224: 13 01 c1 ff  	addi	sp, sp, -4
80000228: 67 80 00 00  	ret

8000022c <__builtin_riscv_workitem_linear_id>:
8000022c: 73 25 30 80  	csrr	a0, 2051
80000230: 73 23 00 80  	csrr	t1, 2048
80000234: 57 a1 08 52  	vid.v	v2
80000238: 57 40 23 02  	vadd.vx	v0, v2, t1
8000023c: 67 80 00 00  	ret

80000240 <__builtin_riscv_global_linear_id>:
80000240: 13 01 41 00  	addi	sp, sp, 4
80000244: 23 2e 11 fe  	sw	ra, -4(sp)
80000248: f3 26 30 80  	csrr	a3, 2051
8000024c: 83 a2 86 00  	lw	t0, 8(a3)
80000250: ef 00 40 11  	jal	0x80000364 <__builtin_riscv_global_id_x>
80000254: 83 ae 46 02  	lw	t4, 36(a3)
80000258: d7 c2 0e 0a  	vsub.vx	v5, v0, t4
8000025c: 13 0f 10 00  	li	t5, 1
80000260: 63 82 e2 05  	beq	t0, t5, 0x800002a4 <.GLR>

80000264 <.GL_2DIM>:
80000264: ef 00 00 13  	jal	0x80000394 <__builtin_riscv_global_id_y>
80000268: 83 af c6 00  	lw	t6, 12(a3)
8000026c: 03 af 06 01  	lw	t5, 16(a3)
80000270: 57 43 0f 0a  	vsub.vx	v6, v0, t5
80000274: 57 e3 6f 96  	vmul.vx	v6, v6, t6
80000278: d7 02 53 02  	vadd.vv	v5, v5, v6
8000027c: 13 0f 20 00  	li	t5, 2
80000280: 63 82 e2 03  	beq	t0, t5, 0x800002a4 <.GLR>

80000284 <.GL_3DIM>:
80000284: ef 00 c0 13  	jal	0x800003c0 <__builtin_riscv_global_id_z>
80000288: 83 af c6 00  	lw	t6, 12(a3)
8000028c: 03 a3 06 01  	lw	t1, 16(a3)
80000290: 03 af c6 02  	lw	t5, 44(a3)
80000294: 57 43 0f 0a  	vsub.vx	v6, v0, t5
80000298: 57 e3 6f 96  	vmul.vx	v6, v6, t6
8000029c: 57 63 63 96  	vmul.vx	v6, v6, t1
800002a0: d7 02 53 02  	vadd.vv	v5, v5, v6

800002a4 <.GLR>:
800002a4: 57 40 50 02  	vadd.vx	v0, v5, zero
800002a8: 83 20 c1 ff  	lw	ra, -4(sp)
800002ac: 0b c0 00 04  	barrier	x0, x0, 1
800002b0: 13 01 c1 ff  	addi	sp, sp, -4
800002b4: 67 80 00 00  	ret

800002b8 <__builtin_riscv_workgroup_id_x>:
800002b8: 73 25 80 80  	csrr	a0, 2056
800002bc: 57 40 05 5e  	vmv.v.x	v0, a0
800002c0: 67 80 00 00  	ret

800002c4 <__builtin_riscv_workgroup_id_y>:
800002c4: 73 25 90 80  	csrr	a0, 2057
800002c8: 57 40 05 5e  	vmv.v.x	v0, a0
800002cc: 67 80 00 00  	ret

800002d0 <__builtin_riscv_workgroup_id_z>:
800002d0: 73 25 a0 80  	csrr	a0, 2058
800002d4: 57 40 05 5e  	vmv.v.x	v0, a0
800002d8: 67 80 00 00  	ret

800002dc <__builtin_riscv_workitem_id_x>:
800002dc: 73 25 30 80  	csrr	a0, 2051
800002e0: 83 22 85 00  	lw	t0, 8(a0)
800002e4: 73 23 00 80  	csrr	t1, 2048
800002e8: 57 a1 08 52  	vid.v	v2
800002ec: 57 40 23 02  	vadd.vx	v0, v2, t1
800002f0: 93 03 10 00  	li	t2, 1
800002f4: 63 86 72 00  	beq	t0, t2, 0x80000300 <.WIXR>
800002f8: 03 2e 85 01  	lw	t3, 24(a0)
800002fc: 57 60 0e 8a  	vremu.vx	v0, v0, t3

80000300 <.WIXR>:
80000300: 67 80 00 00  	ret

80000304 <__builtin_riscv_workitem_id_y>:
80000304: 73 25 30 80  	csrr	a0, 2051
80000308: 83 22 85 00  	lw	t0, 8(a0)
8000030c: 73 23 00 80  	csrr	t1, 2048
80000310: 57 a1 08 52  	vid.v	v2
80000314: 57 40 23 02  	vadd.vx	v0, v2, t1
80000318: 03 2e 85 01  	lw	t3, 24(a0)
8000031c: 93 03 30 00  	li	t2, 3
80000320: 63 86 72 00  	beq	t0, t2, 0x8000032c <.WIY3>

80000324 <.WIY2>:
80000324: 57 60 0e 82  	vdivu.vx	v0, v0, t3
80000328: 67 80 00 00  	ret

8000032c <.WIY3>:
8000032c: 83 2e c5 01  	lw	t4, 28(a0)
80000330: b3 8e ce 03  	mul	t4, t4, t3
80000334: 57 e0 0e 8a  	vremu.vx	v0, v0, t4
80000338: 57 60 0e 82  	vdivu.vx	v0, v0, t3
8000033c: 67 80 00 00  	ret

80000340 <__builtin_riscv_workitem_id_z>:
80000340: 73 25 30 80  	csrr	a0, 2051
80000344: 73 23 00 80  	csrr	t1, 2048
80000348: 57 a1 08 52  	vid.v	v2
8000034c: 57 40 23 02  	vadd.vx	v0, v2, t1
80000350: 03 2e 85 01  	lw	t3, 24(a0)
80000354: 83 2e c5 01  	lw	t4, 28(a0)
80000358: b3 8e ce 03  	mul	t4, t4, t3
8000035c: 57 e0 0e 82  	vdivu.vx	v0, v0, t4
80000360: 67 80 00 00  	ret

80000364 <__builtin_riscv_global_id_x>:
80000364: 13 01 41 00  	addi	sp, sp, 4
80000368: 23 2e 11 fe  	sw	ra, -4(sp)
8000036c: ef f0 1f f7  	jal	0x800002dc <__builtin_riscv_workitem_id_x>
80000370: 73 25 30 80  	csrr	a0, 2051
80000374: 73 23 80 80  	csrr	t1, 2056
80000378: 03 2e 85 01  	lw	t3, 24(a0)
8000037c: b3 0f c3 03  	mul	t6, t1, t3
80000380: 57 c0 0f 02  	vadd.vx	v0, v0, t6
80000384: 83 20 c1 ff  	lw	ra, -4(sp)
80000388: 0b c0 00 04  	barrier	x0, x0, 1
8000038c: 13 01 c1 ff  	addi	sp, sp, -4
80000390: 67 80 00 00  	ret

80000394 <__builtin_riscv_global_id_y>:
80000394: 13 01 41 00  	addi	sp, sp, 4
80000398: 23 2e 11 fe  	sw	ra, -4(sp)
8000039c: ef f0 9f f6  	jal	0x80000304 <__builtin_riscv_workitem_id_y>
800003a0: 73 23 90 80  	csrr	t1, 2057
800003a4: 83 23 c5 01  	lw	t2, 28(a0)
800003a8: 33 0e 73 02  	mul	t3, t1, t2
800003ac: 57 40 0e 02  	vadd.vx	v0, v0, t3
800003b0: 83 20 c1 ff  	lw	ra, -4(sp)
800003b4: 0b c0 00 04  	barrier	x0, x0, 1
800003b8: 13 01 c1 ff  	addi	sp, sp, -4
800003bc: 67 80 00 00  	ret

800003c0 <__builtin_riscv_global_id_z>:
800003c0: 13 01 41 00  	addi	sp, sp, 4
800003c4: 23 2e 11 fe  	sw	ra, -4(sp)
800003c8: ef f0 9f f7  	jal	0x80000340 <__builtin_riscv_workitem_id_z>
800003cc: 73 25 30 80  	csrr	a0, 2051
800003d0: 73 23 a0 80  	csrr	t1, 2058
800003d4: 83 23 05 02  	lw	t2, 32(a0)
800003d8: b3 83 63 02  	mul	t2, t2, t1
800003dc: 57 c0 03 02  	vadd.vx	v0, v0, t2
800003e0: 83 20 c1 ff  	lw	ra, -4(sp)
800003e4: 0b c0 00 04  	barrier	x0, x0, 1
800003e8: 13 01 c1 ff  	addi	sp, sp, -4
800003ec: 67 80 00 00  	ret

800003f0 <__builtin_riscv_local_size_x>:
800003f0: 73 25 30 80  	csrr	a0, 2051
800003f4: 83 22 85 01  	lw	t0, 24(a0)
800003f8: 57 c0 02 5e  	vmv.v.x	v0, t0
800003fc: 67 80 00 00  	ret

80000400 <__builtin_riscv_local_size_y>:
80000400: 73 25 30 80  	csrr	a0, 2051
80000404: 83 22 c5 01  	lw	t0, 28(a0)
80000408: 57 c0 02 5e  	vmv.v.x	v0, t0
8000040c: 67 80 00 00  	ret

80000410 <__builtin_riscv_local_size_z>:
80000410: 73 25 30 80  	csrr	a0, 2051
80000414: 83 22 05 02  	lw	t0, 32(a0)
80000418: 57 c0 02 5e  	vmv.v.x	v0, t0
8000041c: 67 80 00 00  	ret

80000420 <__builtin_riscv_global_size_x>:
80000420: 73 25 30 80  	csrr	a0, 2051
80000424: 83 22 c5 00  	lw	t0, 12(a0)
80000428: 57 c0 02 5e  	vmv.v.x	v0, t0
8000042c: 67 80 00 00  	ret

80000430 <__builtin_riscv_global_size_y>:
80000430: 73 25 30 80  	csrr	a0, 2051
80000434: 83 22 05 01  	lw	t0, 16(a0)
80000438: 57 c0 02 5e  	vmv.v.x	v0, t0
8000043c: 67 80 00 00  	ret

80000440 <__builtin_riscv_global_size_z>:
80000440: 73 25 30 80  	csrr	a0, 2051
80000444: 83 22 45 01  	lw	t0, 20(a0)
80000448: 57 c0 02 5e  	vmv.v.x	v0, t0
8000044c: 67 80 00 00  	ret

80000450 <__builtin_riscv_global_offset_x>:
80000450: 73 25 30 80  	csrr	a0, 2051
80000454: 83 22 45 02  	lw	t0, 36(a0)
80000458: 57 c0 02 5e  	vmv.v.x	v0, t0
8000045c: 67 80 00 00  	ret

80000460 <__builtin_riscv_global_offset_y>:
80000460: 73 25 30 80  	csrr	a0, 2051
80000464: 83 22 85 02  	lw	t0, 40(a0)
80000468: 57 c0 02 5e  	vmv.v.x	v0, t0
8000046c: 67 80 00 00  	ret

80000470 <__builtin_riscv_global_offset_z>:
80000470: 73 25 30 80  	csrr	a0, 2051
80000474: 83 22 c5 02  	lw	t0, 44(a0)
80000478: 57 c0 02 5e  	vmv.v.x	v0, t0
8000047c: 67 80 00 00  	ret

80000480 <__builtin_riscv_num_groups_x>:
80000480: 73 25 30 80  	csrr	a0, 2051
80000484: 03 23 c5 00  	lw	t1, 12(a0)
80000488: 83 22 85 01  	lw	t0, 24(a0)
8000048c: 33 53 53 02  	divu	t1, t1, t0
80000490: 57 40 03 5e  	vmv.v.x	v0, t1
80000494: 67 80 00 00  	ret

80000498 <__builtin_riscv_num_groups_y>:
80000498: 73 25 30 80  	csrr	a0, 2051
8000049c: 03 23 05 01  	lw	t1, 16(a0)
800004a0: 83 22 c5 01  	lw	t0, 28(a0)
800004a4: 33 53 53 02  	divu	t1, t1, t0
800004a8: 57 40 03 5e  	vmv.v.x	v0, t1
800004ac: 67 80 00 00  	ret

800004b0 <__builtin_riscv_num_groups_z>:
800004b0: 73 25 30 80  	csrr	a0, 2051
800004b4: 03 23 45 01  	lw	t1, 20(a0)
800004b8: 83 23 05 02  	lw	t2, 32(a0)
800004bc: 33 53 73 02  	divu	t1, t1, t2
800004c0: 57 40 03 5e  	vmv.v.x	v0, t1
800004c4: 67 80 00 00  	ret

800004c8 <__builtin_riscv_work_dim>:
800004c8: 73 25 30 80  	csrr	a0, 2051
800004cc: 83 22 85 00  	lw	t0, 8(a0)
800004d0: 57 c0 02 5e  	vmv.v.x	v0, t0
800004d4: 67 80 00 00  	ret
