
object.riscv:	file format elf32-littleriscv

Disassembly of section .text:

80000000 <_start>:
80000000: 97 41 00 00  	auipc	gp, 4
80000004: 93 81 81 80  	addi	gp, gp, -2040
80000008: 93 0e 00 02  	li	t4, 32
8000000c: d7 fe 0e 0d  	vsetvli	t4, t4, e32, m1, ta, ma
80000010: b7 2e 00 00  	lui	t4, 2
80000014: f3 ae 0e 30  	csrrs	t4, mstatus, t4
80000018: 93 0e 00 00  	li	t4, 0
8000001c: 73 23 50 80  	csrr	t1, 2053
80000020: f3 23 60 80  	csrr	t2, 2054
80000024: 13 0e 00 40  	li	t3, 1024
80000028: 33 03 c3 03  	mul	t1, t1, t3
8000002c: 33 01 73 00  	add	sp, t1, t2
80000030: 13 02 00 00  	li	tp, 0

80000034 <.Lpcrel_hi1>:
80000034: 17 35 00 00  	auipc	a0, 3
80000038: 13 05 45 fd  	addi	a0, a0, -44

8000003c <.Lpcrel_hi2>:
8000003c: 17 36 00 00  	auipc	a2, 3
80000040: 13 06 c6 fc  	addi	a2, a2, -52
80000044: 63 08 c5 00  	beq	a0, a2, 0x80000054 <.Ltmp0>

80000048 <.Ltmp1>:
80000048: 23 20 05 00  	sw	zero, 0(a0)
8000004c: 13 05 45 00  	addi	a0, a0, 4
80000050: e3 6c c5 fe  	bltu	a0, a2, 0x80000048 <.Ltmp1>

80000054 <.Ltmp0>:
80000054: f3 22 30 80  	csrr	t0, 2051
80000058: 03 a3 02 00  	lw	t1, 0(t0)
8000005c: 03 a5 42 00  	lw	a0, 4(t0)
80000060: 83 a3 02 03  	lw	t2, 48(t0)
80000064: 03 ae 42 03  	lw	t3, 52(t0)

80000068 <.Lpcrel_hi3>:
80000068: 97 3e 00 00  	auipc	t4, 3
8000006c: 93 8e 8e f9  	addi	t4, t4, -104

80000070 <.Lpcrel_hi4>:
80000070: 17 3f 00 00  	auipc	t5, 3
80000074: 13 0f 4f f9  	addi	t5, t5, -108
80000078: 23 a0 7e 00  	sw	t2, 0(t4)
8000007c: 23 20 cf 01  	sw	t3, 0(t5)

80000080 <.Lpcrel_hi5>:
80000080: 97 0f 00 00  	auipc	t6, 0
80000084: 93 8f 8f 01  	addi	t6, t6, 24
80000088: 73 90 5f 30  	csrw	mtvec, t6
8000008c: e7 00 03 00  	jalr	t1
80000090: 0b 40 00 00  	endprg	x0, x0, x0
80000094: 6f 00 40 00  	j	0x80000098 <spike_end>

80000098 <spike_end>:
80000098: 13 03 10 00  	li	t1, 1

8000009c <.Lpcrel_hi6>:
8000009c: 97 12 00 00  	auipc	t0, 1
800000a0: 93 82 42 f6  	addi	t0, t0, -156
800000a4: 23 a0 62 00  	sw	t1, 0(t0)

800000a8 <NearestNeighbor>:
800000a8: 13 01 c1 00  	addi	sp, sp, 12
800000ac: 13 02 42 00  	addi	tp, tp, 4
800000b0: 0b 20 10 00  	regext	zero, zero, 1
800000b4: 57 40 02 5e  	vmv.v.x	v0, tp
800000b8: 23 20 11 00  	sw	ra, 0(sp)
800000bc: 23 2e a1 fe  	sw	a0, -4(sp)
800000c0: 83 22 85 00  	lw	t0, 8(a0)
800000c4: 23 2c 51 fe  	sw	t0, -8(sp)
800000c8: 57 40 00 5e  	vmv.v.x	v0, zero
800000cc: ef 00 00 0b  	jal	0x8000017c <_Z13get_global_idj>
800000d0: 83 22 81 ff  	lw	t0, -8(sp)
800000d4: d7 c0 02 5e  	vmv.v.x	v1, t0

800000d8 <.Lpcrel_hi0>:
800000d8: 17 03 00 00  	auipc	t1, 0
800000dc: 5b 30 03 06  	setrpc	zero, t1, 96
800000e0: 5b dc 00 04  	vbge	v0, v1, 0x80000138 <.LBB0_2>
800000e4: 03 24 c1 ff  	lw	s0, -4(sp)
800000e8: 83 22 44 00  	lw	t0, 4(s0)
800000ec: 03 23 04 00  	lw	t1, 0(s0)
800000f0: 83 23 04 01  	lw	t2, 16(s0)
800000f4: 03 24 c4 00  	lw	s0, 12(s0)
800000f8: d7 c0 03 5e  	vmv.v.x	v1, t2
800000fc: 57 41 04 5e  	vmv.v.x	v2, s0
80000100: d7 b1 01 96  	vsll.vi	v3, v0, 3
80000104: d7 41 33 02  	vadd.vx	v3, v3, t1
80000108: 57 30 01 96  	vsll.vi	v0, v0, 2
8000010c: 7b a2 01 00  	vlw12.v	v4, 0(v3)
80000110: fb a1 41 00  	vlw12.v	v3, 4(v3)
80000114: 0b 20 10 00  	regext	zero, zero, 1
80000118: d7 c0 02 02  	vadd.vx	v1, v0, t0
8000011c: 57 10 22 0a  	vfsub.vv	v0, v2, v4
80000120: d7 90 11 0a  	vfsub.vv	v1, v1, v3
80000124: d7 90 10 92  	vfmul.vv	v1, v1, v1
80000128: 57 10 10 a2  	vfmadd.vv	v0, v0, v1
8000012c: ef 00 00 02  	jal	0x8000014c <_Z4sqrtf>
80000130: 0b 20 80 00  	regext	zero, zero, 8
80000134: 7b e0 00 00  	vsw12.v	v0, 0(v1)

80000138 <.LBB0_2>:
80000138: 5b 20 00 00  	join	zero, zero, 0
8000013c: 83 20 01 00  	lw	ra, 0(sp)
80000140: 13 01 41 ff  	addi	sp, sp, -12
80000144: 13 02 c2 ff  	addi	tp, tp, -4
80000148: 67 80 00 00  	ret

8000014c <_Z4sqrtf>:
8000014c: 13 01 41 00  	addi	sp, sp, 4
80000150: 23 20 11 00  	sw	ra, 0(sp)
80000154: ef 00 00 01  	jal	0x80000164 <_Z10__clc_sqrtf>
80000158: 83 20 01 00  	lw	ra, 0(sp)
8000015c: 13 01 c1 ff  	addi	sp, sp, -4
80000160: 67 80 00 00  	ret

80000164 <_Z10__clc_sqrtf>:
80000164: 13 01 41 00  	addi	sp, sp, 4
80000168: 23 20 11 00  	sw	ra, 0(sp)
8000016c: 57 10 00 4e  	vfsqrt.v	v0, v0
80000170: 83 20 01 00  	lw	ra, 0(sp)
80000174: 13 01 c1 ff  	addi	sp, sp, -4
80000178: 67 80 00 00  	ret

8000017c <_Z13get_global_idj>:
8000017c: 13 01 41 00  	addi	sp, sp, 4
80000180: 23 20 11 00  	sw	ra, 0(sp)
80000184: 93 02 20 00  	li	t0, 2
80000188: d7 c0 02 5e  	vmv.v.x	v1, t0

8000018c <.Lpcrel_hi0>:
8000018c: 17 03 00 00  	auipc	t1, 0
80000190: 5b 30 c3 04  	setrpc	zero, t1, 76
80000194: 5b 88 00 02  	vbeq	v0, v1, 0x800001c4 <.LBB0_4>
80000198: 93 02 10 00  	li	t0, 1
8000019c: d7 c0 02 5e  	vmv.v.x	v1, t0

800001a0 <.Lpcrel_hi1>:
800001a0: 17 03 00 00  	auipc	t1, 0
800001a4: 5b 30 83 03  	setrpc	zero, t1, 56
800001a8: 5b 82 00 02  	vbeq	v0, v1, 0x800001cc <.LBB0_5>
800001ac: d7 40 00 5e  	vmv.v.x	v1, zero

800001b0 <.Lpcrel_hi2>:
800001b0: 17 03 00 00  	auipc	t1, 0
800001b4: 5b 30 83 02  	setrpc	zero, t1, 40
800001b8: 5b 9e 00 00  	vbne	v0, v1, 0x800001d4 <.LBB0_6>
800001bc: ef 00 00 16  	jal	0x8000031c <__builtin_riscv_global_id_x>
800001c0: 6f 00 80 01  	j	0x800001d8 <.LBB0_7>

800001c4 <.LBB0_4>:
800001c4: ef 00 c0 1a  	jal	0x80000370 <__builtin_riscv_global_id_z>
800001c8: 6f 00 00 01  	j	0x800001d8 <.LBB0_7>

800001cc <.LBB0_5>:
800001cc: ef 00 c0 17  	jal	0x80000348 <__builtin_riscv_global_id_y>
800001d0: 6f 00 80 00  	j	0x800001d8 <.LBB0_7>

800001d4 <.LBB0_6>:
800001d4: 57 40 00 5e  	vmv.v.x	v0, zero

800001d8 <.LBB0_7>:
800001d8: 5b 20 00 00  	join	zero, zero, 0
800001dc: 83 20 01 00  	lw	ra, 0(sp)
800001e0: 13 01 c1 ff  	addi	sp, sp, -4
800001e4: 67 80 00 00  	ret

800001e8 <__builtin_riscv_workitem_linear_id>:
800001e8: 73 25 30 80  	csrr	a0, 2051
800001ec: 73 23 00 80  	csrr	t1, 2048
800001f0: 57 a1 08 52  	vid.v	v2
800001f4: 57 40 23 02  	vadd.vx	v0, v2, t1
800001f8: 67 80 00 00  	ret

800001fc <__builtin_riscv_global_linear_id>:
800001fc: 13 01 41 00  	addi	sp, sp, 4
80000200: 23 20 11 00  	sw	ra, 0(sp)
80000204: f3 26 30 80  	csrr	a3, 2051
80000208: 83 a2 86 00  	lw	t0, 8(a3)
8000020c: ef 00 00 11  	jal	0x8000031c <__builtin_riscv_global_id_x>
80000210: 83 ae 46 02  	lw	t4, 36(a3)
80000214: d7 c2 0e 0a  	vsub.vx	v5, v0, t4
80000218: 13 0f 10 00  	li	t5, 1
8000021c: 63 82 e2 05  	beq	t0, t5, 0x80000260 <.GLR>

80000220 <.GL_2DIM>:
80000220: ef 00 80 12  	jal	0x80000348 <__builtin_riscv_global_id_y>
80000224: 83 af c6 00  	lw	t6, 12(a3)
80000228: 03 af 06 01  	lw	t5, 16(a3)
8000022c: 57 43 0f 0a  	vsub.vx	v6, v0, t5
80000230: 57 e3 6f 96  	vmul.vx	v6, v6, t6
80000234: d7 02 53 02  	vadd.vv	v5, v5, v6
80000238: 13 0f 20 00  	li	t5, 2
8000023c: 63 82 e2 03  	beq	t0, t5, 0x80000260 <.GLR>

80000240 <.GL_3DIM>:
80000240: ef 00 00 13  	jal	0x80000370 <__builtin_riscv_global_id_z>
80000244: 83 af c6 00  	lw	t6, 12(a3)
80000248: 03 a3 06 01  	lw	t1, 16(a3)
8000024c: 03 af c6 02  	lw	t5, 44(a3)
80000250: 57 43 0f 0a  	vsub.vx	v6, v0, t5
80000254: 57 e3 6f 96  	vmul.vx	v6, v6, t6
80000258: 57 63 63 96  	vmul.vx	v6, v6, t1
8000025c: d7 02 53 02  	vadd.vv	v5, v5, v6

80000260 <.GLR>:
80000260: 57 40 50 02  	vadd.vx	v0, v5, zero
80000264: 83 20 01 00  	lw	ra, 0(sp)
80000268: 13 01 c1 ff  	addi	sp, sp, -4
8000026c: 67 80 00 00  	ret

80000270 <__builtin_riscv_workgroup_id_x>:
80000270: 73 25 80 80  	csrr	a0, 2056
80000274: 57 40 05 5e  	vmv.v.x	v0, a0
80000278: 67 80 00 00  	ret

8000027c <__builtin_riscv_workgroup_id_y>:
8000027c: 73 25 90 80  	csrr	a0, 2057
80000280: 57 40 05 5e  	vmv.v.x	v0, a0
80000284: 67 80 00 00  	ret

80000288 <__builtin_riscv_workgroup_id_z>:
80000288: 73 25 a0 80  	csrr	a0, 2058
8000028c: 57 40 05 5e  	vmv.v.x	v0, a0
80000290: 67 80 00 00  	ret

80000294 <__builtin_riscv_workitem_id_x>:
80000294: 73 25 30 80  	csrr	a0, 2051
80000298: 83 22 85 00  	lw	t0, 8(a0)
8000029c: 73 23 00 80  	csrr	t1, 2048
800002a0: 57 a1 08 52  	vid.v	v2
800002a4: 57 40 23 02  	vadd.vx	v0, v2, t1
800002a8: 93 03 10 00  	li	t2, 1
800002ac: 63 86 72 00  	beq	t0, t2, 0x800002b8 <.WIXR>
800002b0: 03 2e 85 01  	lw	t3, 24(a0)
800002b4: 57 60 0e 8a  	vremu.vx	v0, v0, t3

800002b8 <.WIXR>:
800002b8: 67 80 00 00  	ret

800002bc <__builtin_riscv_workitem_id_y>:
800002bc: 73 25 30 80  	csrr	a0, 2051
800002c0: 83 22 85 00  	lw	t0, 8(a0)
800002c4: 73 23 00 80  	csrr	t1, 2048
800002c8: 57 a1 08 52  	vid.v	v2
800002cc: 57 40 23 02  	vadd.vx	v0, v2, t1
800002d0: 03 2e 85 01  	lw	t3, 24(a0)
800002d4: 93 03 30 00  	li	t2, 3
800002d8: 63 86 72 00  	beq	t0, t2, 0x800002e4 <.WIY3>

800002dc <.WIY2>:
800002dc: 57 60 0e 82  	vdivu.vx	v0, v0, t3
800002e0: 67 80 00 00  	ret

800002e4 <.WIY3>:
800002e4: 83 2e c5 01  	lw	t4, 28(a0)
800002e8: b3 8e ce 03  	mul	t4, t4, t3
800002ec: 57 e0 0e 8a  	vremu.vx	v0, v0, t4
800002f0: 57 60 0e 82  	vdivu.vx	v0, v0, t3
800002f4: 67 80 00 00  	ret

800002f8 <__builtin_riscv_workitem_id_z>:
800002f8: 73 25 30 80  	csrr	a0, 2051
800002fc: 73 23 00 80  	csrr	t1, 2048
80000300: 57 a1 08 52  	vid.v	v2
80000304: 57 40 23 02  	vadd.vx	v0, v2, t1
80000308: 03 2e 85 01  	lw	t3, 24(a0)
8000030c: 83 2e c5 01  	lw	t4, 28(a0)
80000310: b3 8e ce 03  	mul	t4, t4, t3
80000314: 57 e0 0e 82  	vdivu.vx	v0, v0, t4
80000318: 67 80 00 00  	ret

8000031c <__builtin_riscv_global_id_x>:
8000031c: 13 01 41 00  	addi	sp, sp, 4
80000320: 23 20 11 00  	sw	ra, 0(sp)
80000324: ef f0 1f f7  	jal	0x80000294 <__builtin_riscv_workitem_id_x>
80000328: 73 25 30 80  	csrr	a0, 2051
8000032c: 73 23 80 80  	csrr	t1, 2056
80000330: 03 2e 85 01  	lw	t3, 24(a0)
80000334: b3 0f c3 03  	mul	t6, t1, t3
80000338: 57 c0 0f 02  	vadd.vx	v0, v0, t6
8000033c: 83 20 01 00  	lw	ra, 0(sp)
80000340: 13 01 c1 ff  	addi	sp, sp, -4
80000344: 67 80 00 00  	ret

80000348 <__builtin_riscv_global_id_y>:
80000348: 13 01 41 00  	addi	sp, sp, 4
8000034c: 23 20 11 00  	sw	ra, 0(sp)
80000350: ef f0 df f6  	jal	0x800002bc <__builtin_riscv_workitem_id_y>
80000354: 73 23 90 80  	csrr	t1, 2057
80000358: 83 23 c5 01  	lw	t2, 28(a0)
8000035c: 33 0e 73 02  	mul	t3, t1, t2
80000360: 57 40 0e 02  	vadd.vx	v0, v0, t3
80000364: 83 20 01 00  	lw	ra, 0(sp)
80000368: 13 01 c1 ff  	addi	sp, sp, -4
8000036c: 67 80 00 00  	ret

80000370 <__builtin_riscv_global_id_z>:
80000370: 13 01 41 00  	addi	sp, sp, 4
80000374: 23 20 11 00  	sw	ra, 0(sp)
80000378: ef f0 1f f8  	jal	0x800002f8 <__builtin_riscv_workitem_id_z>
8000037c: 73 25 30 80  	csrr	a0, 2051
80000380: 73 23 a0 80  	csrr	t1, 2058
80000384: 83 23 05 02  	lw	t2, 32(a0)
80000388: b3 83 63 02  	mul	t2, t2, t1
8000038c: 57 c0 03 02  	vadd.vx	v0, v0, t2
80000390: 83 20 01 00  	lw	ra, 0(sp)
80000394: 13 01 c1 ff  	addi	sp, sp, -4
80000398: 67 80 00 00  	ret

8000039c <__builtin_riscv_local_size_x>:
8000039c: 73 25 30 80  	csrr	a0, 2051
800003a0: 83 22 85 01  	lw	t0, 24(a0)
800003a4: 57 c0 02 5e  	vmv.v.x	v0, t0
800003a8: 67 80 00 00  	ret

800003ac <__builtin_riscv_local_size_y>:
800003ac: 73 25 30 80  	csrr	a0, 2051
800003b0: 83 22 c5 01  	lw	t0, 28(a0)
800003b4: 57 c0 02 5e  	vmv.v.x	v0, t0
800003b8: 67 80 00 00  	ret

800003bc <__builtin_riscv_local_size_z>:
800003bc: 73 25 30 80  	csrr	a0, 2051
800003c0: 83 22 05 02  	lw	t0, 32(a0)
800003c4: 57 c0 02 5e  	vmv.v.x	v0, t0
800003c8: 67 80 00 00  	ret

800003cc <__builtin_riscv_global_size_x>:
800003cc: 73 25 30 80  	csrr	a0, 2051
800003d0: 83 22 c5 00  	lw	t0, 12(a0)
800003d4: 57 c0 02 5e  	vmv.v.x	v0, t0
800003d8: 67 80 00 00  	ret

800003dc <__builtin_riscv_global_size_y>:
800003dc: 73 25 30 80  	csrr	a0, 2051
800003e0: 83 22 05 01  	lw	t0, 16(a0)
800003e4: 57 c0 02 5e  	vmv.v.x	v0, t0
800003e8: 67 80 00 00  	ret

800003ec <__builtin_riscv_global_size_z>:
800003ec: 73 25 30 80  	csrr	a0, 2051
800003f0: 83 22 45 01  	lw	t0, 20(a0)
800003f4: 57 c0 02 5e  	vmv.v.x	v0, t0
800003f8: 67 80 00 00  	ret

800003fc <__builtin_riscv_global_offset_x>:
800003fc: 73 25 30 80  	csrr	a0, 2051
80000400: 83 22 45 02  	lw	t0, 36(a0)
80000404: 57 c0 02 5e  	vmv.v.x	v0, t0
80000408: 67 80 00 00  	ret

8000040c <__builtin_riscv_global_offset_y>:
8000040c: 73 25 30 80  	csrr	a0, 2051
80000410: 83 22 85 02  	lw	t0, 40(a0)
80000414: 57 c0 02 5e  	vmv.v.x	v0, t0
80000418: 67 80 00 00  	ret

8000041c <__builtin_riscv_global_offset_z>:
8000041c: 73 25 30 80  	csrr	a0, 2051
80000420: 83 22 c5 02  	lw	t0, 44(a0)
80000424: 57 c0 02 5e  	vmv.v.x	v0, t0
80000428: 67 80 00 00  	ret

8000042c <__builtin_riscv_num_groups_x>:
8000042c: 73 25 30 80  	csrr	a0, 2051
80000430: 03 23 c5 00  	lw	t1, 12(a0)
80000434: 83 22 85 01  	lw	t0, 24(a0)
80000438: 33 53 53 02  	divu	t1, t1, t0
8000043c: 57 40 03 5e  	vmv.v.x	v0, t1
80000440: 67 80 00 00  	ret

80000444 <__builtin_riscv_num_groups_y>:
80000444: 73 25 30 80  	csrr	a0, 2051
80000448: 03 23 05 01  	lw	t1, 16(a0)
8000044c: 83 22 c5 01  	lw	t0, 28(a0)
80000450: 33 53 53 02  	divu	t1, t1, t0
80000454: 57 40 03 5e  	vmv.v.x	v0, t1
80000458: 67 80 00 00  	ret

8000045c <__builtin_riscv_num_groups_z>:
8000045c: 73 25 30 80  	csrr	a0, 2051
80000460: 03 23 45 01  	lw	t1, 20(a0)
80000464: 83 23 05 02  	lw	t2, 32(a0)
80000468: 33 53 73 02  	divu	t1, t1, t2
8000046c: 57 40 03 5e  	vmv.v.x	v0, t1
80000470: 67 80 00 00  	ret

80000474 <__builtin_riscv_work_dim>:
80000474: 73 25 30 80  	csrr	a0, 2051
80000478: 83 22 85 00  	lw	t0, 8(a0)
8000047c: 57 c0 02 5e  	vmv.v.x	v0, t0
80000480: 67 80 00 00  	ret
