
object.riscv:	file format elf32-littleriscv

Disassembly of section .text:

80000000 <_start>:
80000000: 97 41 00 00  	auipc	gp, 4
80000004: 93 81 81 80  	addi	gp, gp, -2040
80000008: 93 0e 00 02  	li	t4, 32
8000000c: d7 fe 0e 0d  	vsetvli	t4, t4, e32, m1, ta, ma
80000010: b7 2e 00 00  	lui	t4, 2
80000014: f3 ae 0e 30  	csrrs	t4, mstatus, t4
80000018: 93 0e 00 00  	li	t4, 0
8000001c: 73 23 50 80  	csrr	t1, 2053
80000020: f3 23 60 80  	csrr	t2, 2054
80000024: 13 0e 00 40  	li	t3, 1024
80000028: 33 03 c3 03  	mul	t1, t1, t3
8000002c: 33 01 73 00  	add	sp, t1, t2
80000030: 13 02 00 00  	li	tp, 0

80000034 <.Lpcrel_hi1>:
80000034: 17 35 00 00  	auipc	a0, 3
80000038: 13 05 45 fd  	addi	a0, a0, -44

8000003c <.Lpcrel_hi2>:
8000003c: 17 36 00 00  	auipc	a2, 3
80000040: 13 06 c6 fc  	addi	a2, a2, -52
80000044: 63 08 c5 00  	beq	a0, a2, 0x80000054 <.Ltmp0>

80000048 <.Ltmp1>:
80000048: 23 20 05 00  	sw	zero, 0(a0)
8000004c: 13 05 45 00  	addi	a0, a0, 4
80000050: e3 6c c5 fe  	bltu	a0, a2, 0x80000048 <.Ltmp1>

80000054 <.Ltmp0>:
80000054: f3 22 30 80  	csrr	t0, 2051
80000058: 03 a3 02 00  	lw	t1, 0(t0)
8000005c: 03 a5 42 00  	lw	a0, 4(t0)
80000060: 83 a3 02 03  	lw	t2, 48(t0)
80000064: 03 ae 42 03  	lw	t3, 52(t0)

80000068 <.Lpcrel_hi3>:
80000068: 97 3e 00 00  	auipc	t4, 3
8000006c: 93 8e 8e f9  	addi	t4, t4, -104

80000070 <.Lpcrel_hi4>:
80000070: 17 3f 00 00  	auipc	t5, 3
80000074: 13 0f 4f f9  	addi	t5, t5, -108
80000078: 23 a0 7e 00  	sw	t2, 0(t4)
8000007c: 23 20 cf 01  	sw	t3, 0(t5)

80000080 <.Lpcrel_hi5>:
80000080: 97 0f 00 00  	auipc	t6, 0
80000084: 93 8f 8f 01  	addi	t6, t6, 24
80000088: 73 90 5f 30  	csrw	mtvec, t6
8000008c: e7 00 03 00  	jalr	t1
80000090: 0b 40 00 00  	endprg	x0, x0, x0
80000094: 6f 00 40 00  	j	0x80000098 <spike_end>

80000098 <spike_end>:
80000098: 13 03 10 00  	li	t1, 1

8000009c <.Lpcrel_hi6>:
8000009c: 97 12 00 00  	auipc	t0, 1
800000a0: 93 82 42 f6  	addi	t0, t0, -156
800000a4: 23 a0 62 00  	sw	t1, 0(t0)

800000a8 <vecadd>:
800000a8: 13 01 01 01  	addi	sp, sp, 16
800000ac: 23 20 11 00  	sw	ra, 0(sp)
800000b0: 83 22 85 00  	lw	t0, 8(a0)
800000b4: 23 2a 51 fe  	sw	t0, -12(sp)
800000b8: 83 22 45 00  	lw	t0, 4(a0)
800000bc: 23 2c 51 fe  	sw	t0, -8(sp)
800000c0: 83 22 05 00  	lw	t0, 0(a0)
800000c4: 23 2e 51 fe  	sw	t0, -4(sp)
800000c8: 57 40 00 5e  	vmv.v.x	v0, zero
800000cc: ef 00 c0 03  	jal	0x80000108 <_Z13get_global_idj>
800000d0: 57 30 01 96  	vsll.vi	v0, v0, 2
800000d4: 03 23 c1 ff  	lw	t1, -4(sp)
800000d8: d7 40 03 02  	vadd.vx	v1, v0, t1
800000dc: fb a0 00 00  	vlw12.v	v1, 0(v1)
800000e0: 83 22 81 ff  	lw	t0, -8(sp)
800000e4: 57 c1 02 02  	vadd.vx	v2, v0, t0
800000e8: 7b 21 01 00  	vlw12.v	v2, 0(v2)
800000ec: d7 10 11 02  	vfadd.vv	v1, v1, v2
800000f0: 83 22 41 ff  	lw	t0, -12(sp)
800000f4: 57 c0 02 02  	vadd.vx	v0, v0, t0
800000f8: 7b 60 10 00  	vsw12.v	v1, 0(v0)
800000fc: 83 20 01 00  	lw	ra, 0(sp)
80000100: 13 01 01 ff  	addi	sp, sp, -16
80000104: 67 80 00 00  	ret

80000108 <_Z13get_global_idj>:
80000108: 13 01 41 00  	addi	sp, sp, 4
8000010c: 23 20 11 00  	sw	ra, 0(sp)
80000110: 93 02 20 00  	li	t0, 2
80000114: d7 c0 02 5e  	vmv.v.x	v1, t0

80000118 <.Lpcrel_hi0>:
80000118: 17 03 00 00  	auipc	t1, 0
8000011c: 5b 30 c3 04  	setrpc	zero, t1, 76
80000120: 5b 88 00 02  	vbeq	v0, v1, 0x80000150 <.LBB0_4>
80000124: 93 02 10 00  	li	t0, 1
80000128: d7 c0 02 5e  	vmv.v.x	v1, t0

8000012c <.Lpcrel_hi1>:
8000012c: 17 03 00 00  	auipc	t1, 0
80000130: 5b 30 83 03  	setrpc	zero, t1, 56
80000134: 5b 82 00 02  	vbeq	v0, v1, 0x80000158 <.LBB0_5>
80000138: d7 40 00 5e  	vmv.v.x	v1, zero

8000013c <.Lpcrel_hi2>:
8000013c: 17 03 00 00  	auipc	t1, 0
80000140: 5b 30 83 02  	setrpc	zero, t1, 40
80000144: 5b 9e 00 00  	vbne	v0, v1, 0x80000160 <.LBB0_6>
80000148: ef 00 00 16  	jal	0x800002a8 <__builtin_riscv_global_id_x>
8000014c: 6f 00 80 01  	j	0x80000164 <.LBB0_7>

80000150 <.LBB0_4>:
80000150: ef 00 c0 1a  	jal	0x800002fc <__builtin_riscv_global_id_z>
80000154: 6f 00 00 01  	j	0x80000164 <.LBB0_7>

80000158 <.LBB0_5>:
80000158: ef 00 c0 17  	jal	0x800002d4 <__builtin_riscv_global_id_y>
8000015c: 6f 00 80 00  	j	0x80000164 <.LBB0_7>

80000160 <.LBB0_6>:
80000160: 57 40 00 5e  	vmv.v.x	v0, zero

80000164 <.LBB0_7>:
80000164: 5b 20 00 00  	join	zero, zero, 0
80000168: 83 20 01 00  	lw	ra, 0(sp)
8000016c: 13 01 c1 ff  	addi	sp, sp, -4
80000170: 67 80 00 00  	ret

80000174 <__builtin_riscv_workitem_linear_id>:
80000174: 73 25 30 80  	csrr	a0, 2051
80000178: 73 23 00 80  	csrr	t1, 2048
8000017c: 57 a1 08 52  	vid.v	v2
80000180: 57 40 23 02  	vadd.vx	v0, v2, t1
80000184: 67 80 00 00  	ret

80000188 <__builtin_riscv_global_linear_id>:
80000188: 13 01 41 00  	addi	sp, sp, 4
8000018c: 23 20 11 00  	sw	ra, 0(sp)
80000190: f3 26 30 80  	csrr	a3, 2051
80000194: 83 a2 86 00  	lw	t0, 8(a3)
80000198: ef 00 00 11  	jal	0x800002a8 <__builtin_riscv_global_id_x>
8000019c: 83 ae 46 02  	lw	t4, 36(a3)
800001a0: d7 c2 0e 0a  	vsub.vx	v5, v0, t4
800001a4: 13 0f 10 00  	li	t5, 1
800001a8: 63 82 e2 05  	beq	t0, t5, 0x800001ec <.GLR>

800001ac <.GL_2DIM>:
800001ac: ef 00 80 12  	jal	0x800002d4 <__builtin_riscv_global_id_y>
800001b0: 83 af c6 00  	lw	t6, 12(a3)
800001b4: 03 af 06 01  	lw	t5, 16(a3)
800001b8: 57 43 0f 0a  	vsub.vx	v6, v0, t5
800001bc: 57 e3 6f 96  	vmul.vx	v6, v6, t6
800001c0: d7 02 53 02  	vadd.vv	v5, v5, v6
800001c4: 13 0f 20 00  	li	t5, 2
800001c8: 63 82 e2 03  	beq	t0, t5, 0x800001ec <.GLR>

800001cc <.GL_3DIM>:
800001cc: ef 00 00 13  	jal	0x800002fc <__builtin_riscv_global_id_z>
800001d0: 83 af c6 00  	lw	t6, 12(a3)
800001d4: 03 a3 06 01  	lw	t1, 16(a3)
800001d8: 03 af c6 02  	lw	t5, 44(a3)
800001dc: 57 43 0f 0a  	vsub.vx	v6, v0, t5
800001e0: 57 e3 6f 96  	vmul.vx	v6, v6, t6
800001e4: 57 63 63 96  	vmul.vx	v6, v6, t1
800001e8: d7 02 53 02  	vadd.vv	v5, v5, v6

800001ec <.GLR>:
800001ec: 57 40 50 02  	vadd.vx	v0, v5, zero
800001f0: 83 20 01 00  	lw	ra, 0(sp)
800001f4: 13 01 c1 ff  	addi	sp, sp, -4
800001f8: 67 80 00 00  	ret

800001fc <__builtin_riscv_workgroup_id_x>:
800001fc: 73 25 80 80  	csrr	a0, 2056
80000200: 57 40 05 5e  	vmv.v.x	v0, a0
80000204: 67 80 00 00  	ret

80000208 <__builtin_riscv_workgroup_id_y>:
80000208: 73 25 90 80  	csrr	a0, 2057
8000020c: 57 40 05 5e  	vmv.v.x	v0, a0
80000210: 67 80 00 00  	ret

80000214 <__builtin_riscv_workgroup_id_z>:
80000214: 73 25 a0 80  	csrr	a0, 2058
80000218: 57 40 05 5e  	vmv.v.x	v0, a0
8000021c: 67 80 00 00  	ret

80000220 <__builtin_riscv_workitem_id_x>:
80000220: 73 25 30 80  	csrr	a0, 2051
80000224: 83 22 85 00  	lw	t0, 8(a0)
80000228: 73 23 00 80  	csrr	t1, 2048
8000022c: 57 a1 08 52  	vid.v	v2
80000230: 57 40 23 02  	vadd.vx	v0, v2, t1
80000234: 93 03 10 00  	li	t2, 1
80000238: 63 86 72 00  	beq	t0, t2, 0x80000244 <.WIXR>
8000023c: 03 2e 85 01  	lw	t3, 24(a0)
80000240: 57 60 0e 8a  	vremu.vx	v0, v0, t3

80000244 <.WIXR>:
80000244: 67 80 00 00  	ret

80000248 <__builtin_riscv_workitem_id_y>:
80000248: 73 25 30 80  	csrr	a0, 2051
8000024c: 83 22 85 00  	lw	t0, 8(a0)
80000250: 73 23 00 80  	csrr	t1, 2048
80000254: 57 a1 08 52  	vid.v	v2
80000258: 57 40 23 02  	vadd.vx	v0, v2, t1
8000025c: 03 2e 85 01  	lw	t3, 24(a0)
80000260: 93 03 30 00  	li	t2, 3
80000264: 63 86 72 00  	beq	t0, t2, 0x80000270 <.WIY3>

80000268 <.WIY2>:
80000268: 57 60 0e 82  	vdivu.vx	v0, v0, t3
8000026c: 67 80 00 00  	ret

80000270 <.WIY3>:
80000270: 83 2e c5 01  	lw	t4, 28(a0)
80000274: b3 8e ce 03  	mul	t4, t4, t3
80000278: 57 e0 0e 8a  	vremu.vx	v0, v0, t4
8000027c: 57 60 0e 82  	vdivu.vx	v0, v0, t3
80000280: 67 80 00 00  	ret

80000284 <__builtin_riscv_workitem_id_z>:
80000284: 73 25 30 80  	csrr	a0, 2051
80000288: 73 23 00 80  	csrr	t1, 2048
8000028c: 57 a1 08 52  	vid.v	v2
80000290: 57 40 23 02  	vadd.vx	v0, v2, t1
80000294: 03 2e 85 01  	lw	t3, 24(a0)
80000298: 83 2e c5 01  	lw	t4, 28(a0)
8000029c: b3 8e ce 03  	mul	t4, t4, t3
800002a0: 57 e0 0e 82  	vdivu.vx	v0, v0, t4
800002a4: 67 80 00 00  	ret

800002a8 <__builtin_riscv_global_id_x>:
800002a8: 13 01 41 00  	addi	sp, sp, 4
800002ac: 23 20 11 00  	sw	ra, 0(sp)
800002b0: ef f0 1f f7  	jal	0x80000220 <__builtin_riscv_workitem_id_x>
800002b4: 73 25 30 80  	csrr	a0, 2051
800002b8: 73 23 80 80  	csrr	t1, 2056
800002bc: 03 2e 85 01  	lw	t3, 24(a0)
800002c0: b3 0f c3 03  	mul	t6, t1, t3
800002c4: 57 c0 0f 02  	vadd.vx	v0, v0, t6
800002c8: 83 20 01 00  	lw	ra, 0(sp)
800002cc: 13 01 c1 ff  	addi	sp, sp, -4
800002d0: 67 80 00 00  	ret

800002d4 <__builtin_riscv_global_id_y>:
800002d4: 13 01 41 00  	addi	sp, sp, 4
800002d8: 23 20 11 00  	sw	ra, 0(sp)
800002dc: ef f0 df f6  	jal	0x80000248 <__builtin_riscv_workitem_id_y>
800002e0: 73 23 90 80  	csrr	t1, 2057
800002e4: 83 23 c5 01  	lw	t2, 28(a0)
800002e8: 33 0e 73 02  	mul	t3, t1, t2
800002ec: 57 40 0e 02  	vadd.vx	v0, v0, t3
800002f0: 83 20 01 00  	lw	ra, 0(sp)
800002f4: 13 01 c1 ff  	addi	sp, sp, -4
800002f8: 67 80 00 00  	ret

800002fc <__builtin_riscv_global_id_z>:
800002fc: 13 01 41 00  	addi	sp, sp, 4
80000300: 23 20 11 00  	sw	ra, 0(sp)
80000304: ef f0 1f f8  	jal	0x80000284 <__builtin_riscv_workitem_id_z>
80000308: 73 25 30 80  	csrr	a0, 2051
8000030c: 73 23 a0 80  	csrr	t1, 2058
80000310: 83 23 05 02  	lw	t2, 32(a0)
80000314: b3 83 63 02  	mul	t2, t2, t1
80000318: 57 c0 03 02  	vadd.vx	v0, v0, t2
8000031c: 83 20 01 00  	lw	ra, 0(sp)
80000320: 13 01 c1 ff  	addi	sp, sp, -4
80000324: 67 80 00 00  	ret

80000328 <__builtin_riscv_local_size_x>:
80000328: 73 25 30 80  	csrr	a0, 2051
8000032c: 83 22 85 01  	lw	t0, 24(a0)
80000330: 57 c0 02 5e  	vmv.v.x	v0, t0
80000334: 67 80 00 00  	ret

80000338 <__builtin_riscv_local_size_y>:
80000338: 73 25 30 80  	csrr	a0, 2051
8000033c: 83 22 c5 01  	lw	t0, 28(a0)
80000340: 57 c0 02 5e  	vmv.v.x	v0, t0
80000344: 67 80 00 00  	ret

80000348 <__builtin_riscv_local_size_z>:
80000348: 73 25 30 80  	csrr	a0, 2051
8000034c: 83 22 05 02  	lw	t0, 32(a0)
80000350: 57 c0 02 5e  	vmv.v.x	v0, t0
80000354: 67 80 00 00  	ret

80000358 <__builtin_riscv_global_size_x>:
80000358: 73 25 30 80  	csrr	a0, 2051
8000035c: 83 22 c5 00  	lw	t0, 12(a0)
80000360: 57 c0 02 5e  	vmv.v.x	v0, t0
80000364: 67 80 00 00  	ret

80000368 <__builtin_riscv_global_size_y>:
80000368: 73 25 30 80  	csrr	a0, 2051
8000036c: 83 22 05 01  	lw	t0, 16(a0)
80000370: 57 c0 02 5e  	vmv.v.x	v0, t0
80000374: 67 80 00 00  	ret

80000378 <__builtin_riscv_global_size_z>:
80000378: 73 25 30 80  	csrr	a0, 2051
8000037c: 83 22 45 01  	lw	t0, 20(a0)
80000380: 57 c0 02 5e  	vmv.v.x	v0, t0
80000384: 67 80 00 00  	ret

80000388 <__builtin_riscv_global_offset_x>:
80000388: 73 25 30 80  	csrr	a0, 2051
8000038c: 83 22 45 02  	lw	t0, 36(a0)
80000390: 57 c0 02 5e  	vmv.v.x	v0, t0
80000394: 67 80 00 00  	ret

80000398 <__builtin_riscv_global_offset_y>:
80000398: 73 25 30 80  	csrr	a0, 2051
8000039c: 83 22 85 02  	lw	t0, 40(a0)
800003a0: 57 c0 02 5e  	vmv.v.x	v0, t0
800003a4: 67 80 00 00  	ret

800003a8 <__builtin_riscv_global_offset_z>:
800003a8: 73 25 30 80  	csrr	a0, 2051
800003ac: 83 22 c5 02  	lw	t0, 44(a0)
800003b0: 57 c0 02 5e  	vmv.v.x	v0, t0
800003b4: 67 80 00 00  	ret

800003b8 <__builtin_riscv_num_groups_x>:
800003b8: 73 25 30 80  	csrr	a0, 2051
800003bc: 03 23 c5 00  	lw	t1, 12(a0)
800003c0: 83 22 85 01  	lw	t0, 24(a0)
800003c4: 33 53 53 02  	divu	t1, t1, t0
800003c8: 57 40 03 5e  	vmv.v.x	v0, t1
800003cc: 67 80 00 00  	ret

800003d0 <__builtin_riscv_num_groups_y>:
800003d0: 73 25 30 80  	csrr	a0, 2051
800003d4: 03 23 05 01  	lw	t1, 16(a0)
800003d8: 83 22 c5 01  	lw	t0, 28(a0)
800003dc: 33 53 53 02  	divu	t1, t1, t0
800003e0: 57 40 03 5e  	vmv.v.x	v0, t1
800003e4: 67 80 00 00  	ret

800003e8 <__builtin_riscv_num_groups_z>:
800003e8: 73 25 30 80  	csrr	a0, 2051
800003ec: 03 23 45 01  	lw	t1, 20(a0)
800003f0: 83 23 05 02  	lw	t2, 32(a0)
800003f4: 33 53 73 02  	divu	t1, t1, t2
800003f8: 57 40 03 5e  	vmv.v.x	v0, t1
800003fc: 67 80 00 00  	ret

80000400 <__builtin_riscv_work_dim>:
80000400: 73 25 30 80  	csrr	a0, 2051
80000404: 83 22 85 00  	lw	t0, 8(a0)
80000408: 57 c0 02 5e  	vmv.v.x	v0, t0
8000040c: 67 80 00 00  	ret
